{
  "address": "0x2E9d8A6c168054B297724Ff5137576e8B47aA013",
  "abi": [
    {
      "inputs": [],
      "stateMutability": "nonpayable",
      "type": "constructor"
    },
    {
      "inputs": [],
      "name": "PollContract_AlreadyVotedInPoll",
      "type": "error"
    },
    {
      "inputs": [
        {
          "internalType": "uint256",
          "name": "receivedTime",
          "type": "uint256"
        },
        {
          "internalType": "uint256",
          "name": "blockTimestamp",
          "type": "uint256"
        }
      ],
      "name": "PollContract_NeededBiggerClosesAtDate",
      "type": "error"
    },
    {
      "inputs": [],
      "name": "PollContract_NotEnoughOptionsProvided",
      "type": "error"
    },
    {
      "inputs": [],
      "name": "PollContract_PollIsClosed",
      "type": "error"
    },
    {
      "inputs": [],
      "name": "PollContract_WrongAmountOfOptionsProvided",
      "type": "error"
    },
    {
      "anonymous": false,
      "inputs": [
        {
          "components": [
            {
              "internalType": "uint256",
              "name": "voteId",
              "type": "uint256"
            },
            {
              "internalType": "uint256",
              "name": "pollId",
              "type": "uint256"
            },
            {
              "internalType": "address",
              "name": "voter",
              "type": "address"
            },
            {
              "components": [
                {
                  "internalType": "uint256",
                  "name": "optionId",
                  "type": "uint256"
                },
                {
                  "internalType": "uint256",
                  "name": "pollId",
                  "type": "uint256"
                },
                {
                  "internalType": "uint256",
                  "name": "numberOfVotes",
                  "type": "uint256"
                },
                {
                  "internalType": "string",
                  "name": "name",
                  "type": "string"
                }
              ],
              "internalType": "struct PollContract.Option[]",
              "name": "optionsVoted",
              "type": "tuple[]"
            }
          ],
          "indexed": false,
          "internalType": "struct PollContract.Vote",
          "name": "newVote",
          "type": "tuple"
        }
      ],
      "name": "NewVoteInPoll",
      "type": "event"
    },
    {
      "anonymous": false,
      "inputs": [
        {
          "components": [
            {
              "internalType": "uint256",
              "name": "id",
              "type": "uint256"
            },
            {
              "internalType": "string",
              "name": "name",
              "type": "string"
            },
            {
              "internalType": "string",
              "name": "description",
              "type": "string"
            },
            {
              "internalType": "bool",
              "name": "allowMultipleOptionsSelected",
              "type": "bool"
            },
            {
              "internalType": "uint256",
              "name": "createdAt",
              "type": "uint256"
            },
            {
              "internalType": "uint256",
              "name": "closesAt",
              "type": "uint256"
            },
            {
              "internalType": "address",
              "name": "creator",
              "type": "address"
            },
            {
              "internalType": "uint256",
              "name": "numberOfOptions",
              "type": "uint256"
            }
          ],
          "indexed": false,
          "internalType": "struct PollContract.Poll",
          "name": "pollCreated",
          "type": "tuple"
        }
      ],
      "name": "PollCreated",
      "type": "event"
    },
    {
      "inputs": [
        {
          "internalType": "string",
          "name": "_name",
          "type": "string"
        },
        {
          "internalType": "string",
          "name": "_description",
          "type": "string"
        },
        {
          "internalType": "bool",
          "name": "_allowMultipleOptionsSelected",
          "type": "bool"
        },
        {
          "internalType": "uint256",
          "name": "_closesAt",
          "type": "uint256"
        },
        {
          "internalType": "string[]",
          "name": "_options",
          "type": "string[]"
        }
      ],
      "name": "createPoll",
      "outputs": [],
      "stateMutability": "payable",
      "type": "function"
    },
    {
      "inputs": [
        {
          "internalType": "uint256",
          "name": "_pollId",
          "type": "uint256"
        }
      ],
      "name": "getMyVoteInPoll",
      "outputs": [
        {
          "components": [
            {
              "internalType": "uint256",
              "name": "voteId",
              "type": "uint256"
            },
            {
              "internalType": "uint256",
              "name": "pollId",
              "type": "uint256"
            },
            {
              "internalType": "address",
              "name": "voter",
              "type": "address"
            },
            {
              "components": [
                {
                  "internalType": "uint256",
                  "name": "optionId",
                  "type": "uint256"
                },
                {
                  "internalType": "uint256",
                  "name": "pollId",
                  "type": "uint256"
                },
                {
                  "internalType": "uint256",
                  "name": "numberOfVotes",
                  "type": "uint256"
                },
                {
                  "internalType": "string",
                  "name": "name",
                  "type": "string"
                }
              ],
              "internalType": "struct PollContract.Option[]",
              "name": "optionsVoted",
              "type": "tuple[]"
            }
          ],
          "internalType": "struct PollContract.Vote",
          "name": "",
          "type": "tuple"
        }
      ],
      "stateMutability": "view",
      "type": "function"
    },
    {
      "inputs": [
        {
          "internalType": "uint256",
          "name": "_pollId",
          "type": "uint256"
        }
      ],
      "name": "getPollById",
      "outputs": [
        {
          "components": [
            {
              "internalType": "uint256",
              "name": "id",
              "type": "uint256"
            },
            {
              "internalType": "string",
              "name": "name",
              "type": "string"
            },
            {
              "internalType": "string",
              "name": "description",
              "type": "string"
            },
            {
              "internalType": "bool",
              "name": "allowMultipleOptionsSelected",
              "type": "bool"
            },
            {
              "internalType": "uint256",
              "name": "createdAt",
              "type": "uint256"
            },
            {
              "internalType": "uint256",
              "name": "closesAt",
              "type": "uint256"
            },
            {
              "internalType": "address",
              "name": "creator",
              "type": "address"
            },
            {
              "internalType": "uint256",
              "name": "numberOfOptions",
              "type": "uint256"
            }
          ],
          "internalType": "struct PollContract.Poll",
          "name": "",
          "type": "tuple"
        },
        {
          "components": [
            {
              "internalType": "uint256",
              "name": "optionId",
              "type": "uint256"
            },
            {
              "internalType": "uint256",
              "name": "pollId",
              "type": "uint256"
            },
            {
              "internalType": "uint256",
              "name": "numberOfVotes",
              "type": "uint256"
            },
            {
              "internalType": "string",
              "name": "name",
              "type": "string"
            }
          ],
          "internalType": "struct PollContract.Option[]",
          "name": "",
          "type": "tuple[]"
        },
        {
          "internalType": "uint256",
          "name": "",
          "type": "uint256"
        }
      ],
      "stateMutability": "view",
      "type": "function"
    },
    {
      "inputs": [
        {
          "internalType": "uint256",
          "name": "_pollId",
          "type": "uint256"
        }
      ],
      "name": "getPollVotes",
      "outputs": [
        {
          "components": [
            {
              "internalType": "uint256",
              "name": "voteId",
              "type": "uint256"
            },
            {
              "internalType": "uint256",
              "name": "pollId",
              "type": "uint256"
            },
            {
              "internalType": "address",
              "name": "voter",
              "type": "address"
            },
            {
              "components": [
                {
                  "internalType": "uint256",
                  "name": "optionId",
                  "type": "uint256"
                },
                {
                  "internalType": "uint256",
                  "name": "pollId",
                  "type": "uint256"
                },
                {
                  "internalType": "uint256",
                  "name": "numberOfVotes",
                  "type": "uint256"
                },
                {
                  "internalType": "string",
                  "name": "name",
                  "type": "string"
                }
              ],
              "internalType": "struct PollContract.Option[]",
              "name": "optionsVoted",
              "type": "tuple[]"
            }
          ],
          "internalType": "struct PollContract.Vote[]",
          "name": "",
          "type": "tuple[]"
        }
      ],
      "stateMutability": "view",
      "type": "function"
    },
    {
      "inputs": [],
      "name": "getPolls",
      "outputs": [
        {
          "components": [
            {
              "internalType": "uint256",
              "name": "id",
              "type": "uint256"
            },
            {
              "internalType": "string",
              "name": "name",
              "type": "string"
            },
            {
              "internalType": "string",
              "name": "description",
              "type": "string"
            },
            {
              "internalType": "bool",
              "name": "allowMultipleOptionsSelected",
              "type": "bool"
            },
            {
              "internalType": "uint256",
              "name": "createdAt",
              "type": "uint256"
            },
            {
              "internalType": "uint256",
              "name": "closesAt",
              "type": "uint256"
            },
            {
              "internalType": "address",
              "name": "creator",
              "type": "address"
            },
            {
              "internalType": "uint256",
              "name": "numberOfOptions",
              "type": "uint256"
            }
          ],
          "internalType": "struct PollContract.Poll[]",
          "name": "",
          "type": "tuple[]"
        }
      ],
      "stateMutability": "view",
      "type": "function"
    },
    {
      "inputs": [],
      "name": "getPollsCount",
      "outputs": [
        {
          "internalType": "uint256",
          "name": "",
          "type": "uint256"
        }
      ],
      "stateMutability": "view",
      "type": "function"
    },
    {
      "inputs": [
        {
          "internalType": "uint256",
          "name": "_pollId",
          "type": "uint256"
        },
        {
          "internalType": "uint256[]",
          "name": "optionsVotedIds",
          "type": "uint256[]"
        }
      ],
      "name": "votePoll",
      "outputs": [],
      "stateMutability": "payable",
      "type": "function"
    }
  ],
  "transactionHash": "0xe03086cdf1ce42e4b82624a2b65fe1dca1534ae92b98f1305b011bf7af524aca",
  "args": [],
  "numDeployments": 1,
  "solcInputHash": "0c34c8fcdace96168632fe92a856501b",
  "bytecode": "0x608060405234801561001057600080fd5b50611b7e806100206000396000f3fe6080604052600436106100705760003560e01c8063bbff71661161004e578063bbff7166146100e2578063cc6183fd1461010f578063d4bc5e9114610122578063e09959161461015157600080fd5b8063120fe89b1461007557806314dc7503146100a05780632e2f3979146100cd575b600080fd5b34801561008157600080fd5b5061008a61016f565b604051610097919061122a565b60405180910390f35b3480156100ac57600080fd5b506100c06100bb36600461128c565b6103ed565b6040516100979190611356565b6100e06100db3660046113bc565b610576565b005b3480156100ee57600080fd5b506101026100fd36600461128c565b610836565b6040516100979190611408565b6100e061011d36600461149f565b610a5c565b34801561012e57600080fd5b5061014261013d36600461128c565b610caa565b6040516100979392919061155c565b34801561015d57600080fd5b50600054604051908152602001610097565b60606000805467ffffffffffffffff81111561018d5761018d6115fe565b60405190808252806020026020018201604052801561021157816020015b6101fe604051806101000160405280600081526020016060815260200160608152602001600015158152602001600081526020016000815260200160006001600160a01b03168152602001600081525090565b8152602001906001900390816101ab5790505b50905060005b6000548110156103e757600060016000838152602001908152602001600020905080604051806101000160405290816000820154815260200160018201805461025f90611614565b80601f016020809104026020016040519081016040528092919081815260200182805461028b90611614565b80156102d85780601f106102ad576101008083540402835291602001916102d8565b820191906000526020600020905b8154815290600101906020018083116102bb57829003601f168201915b505050505081526020016002820180546102f190611614565b80601f016020809104026020016040519081016040528092919081815260200182805461031d90611614565b801561036a5780601f1061033f5761010080835404028352916020019161036a565b820191906000526020600020905b81548152906001019060200180831161034d57829003601f168201915b5050509183525050600382015460ff1615156020820152600482015460408201526005820154606082015260068201546001600160a01b0316608082015260079091015460a09091015283518490849081106103c8576103c8611648565b60200260200101819052505080806103df9061165e565b915050610217565b50919050565b6104216040518060800160405280600081526020016000815260200160006001600160a01b03168152602001606081525090565b3360009081526002602081815260408084208685528252808420815160808101835281548152600182015481850152938101546001600160a01b0316848301526003810180548351818602810186019094528084529495919460608701949192909184015b8282101561056857838290600052602060002090600402016040518060800160405290816000820154815260200160018201548152602001600282015481526020016003820180546104d790611614565b80601f016020809104026020016040519081016040528092919081815260200182805461050390611614565b80156105505780601f1061052557610100808354040283529160200191610550565b820191906000526020600020905b81548152906001019060200180831161053357829003601f168201915b50505050508152505081526020019060010190610486565b505050915250909392505050565b60008381526001602090815260408083203384526002808452828520888652909352922001546001600160a01b031680156105dd576040517f55ed6b1c00000000000000000000000000000000000000000000000000000000815260040160405180910390fd5b428260050154101561061b576040517f056cfd8900000000000000000000000000000000000000000000000000000000815260040160405180910390fd5b600382015460ff161580156106305750600183115b8061063b5750600183105b15610672576040517f07e70e6a00000000000000000000000000000000000000000000000000000000815260040160405180910390fd5b3360009081526002602090815260408083208884529091528120905b8481101561074b576000878152600360205260408120818888858181106106b7576106b7611648565b60209081029290920135835250818101929092526040016000908120600380870180546001818101835591855294909320825460049095020193845582820154928401929092556002808201549084015592508291908181019061071d908401826116d4565b5050506002810180549060006107328361165e565b91905055505080806107439061165e565b91505061068e565b5060018082018781556002808401805473ffffffffffffffffffffffffffffffffffffffff199081163317825560008b8152600460209081526040808320600583528184205484529091529020865481559354948401949094555490820180549093166001600160a01b039190911617909155600380830180548493926107d5929084019161105c565b50505060008681526005602052604081208054916107f28361165e565b91905055507f85d3e9cb4d98ec6e60217dc7e20d67c15c50a3d54e3f46434e33214054aa9fa8816040516108269190611832565b60405180910390a1505050505050565b6000818152600560205260408120546060918167ffffffffffffffff811115610861576108616115fe565b6040519080825280602002602001820160405280156108c657816020015b6108b36040518060800160405280600081526020016000815260200160006001600160a01b03168152602001606081525090565b81526020019060019003908161087f5790505b50905060005b82811015610a54576000858152600460209081526040808320848452825280832081516080810183528154815260018201548185015260028201546001600160a01b031681840152600382018054845181870281018701909552808552919592946060870194939192919084015b82821015610a1c578382906000526020600020906004020160405180608001604052908160008201548152602001600182015481526020016002820154815260200160038201805461098b90611614565b80601f01602080910402602001604051908101604052809291908181526020018280546109b790611614565b8015610a045780601f106109d957610100808354040283529160200191610a04565b820191906000526020600020905b8154815290600101906020018083116109e757829003601f168201915b5050505050815250508152602001906001019061093a565b5050505081525050828281518110610a3657610a36611648565b60200260200101819052508080610a4c9061165e565b9150506108cc565b509392505050565b4280841015610aa5576040517f4db8320e000000000000000000000000000000000000000000000000000000008152600481018590526024810182905260440160405180910390fd5b6002821015610ae0576040517fe611dbbd00000000000000000000000000000000000000000000000000000000815260040160405180910390fd5b6000805480825260016020819052604090922081815590918101610b058b8d836118f9565b5060028101610b15898b836118f9565b5060038101805488151560ff19909116179055600481018390556005810186905560068101805473ffffffffffffffffffffffffffffffffffffffff1916331790556000600782018190555b84811015610c5157604051806080016040528082815260200184815260200160008152602001878784818110610b9957610b99611648565b9050602002810190610bab91906119b9565b8080601f0160208091040260200160405190810160405280939291908181526020018383808284376000920182905250939094525050858152600360208181526040808420878552825292839020855181559085015160018201559184015160028301556060840151919250820190610c249082611a00565b505050600782018054906000610c398361165e565b91905055508080610c499061165e565b915050610b61565b50600080549080610c618361165e565b91905055507f19110a9ddd6127e24e936053c6096af655db4f9013a91d281bf9a06ec5f4a7f581604051610c959190611aba565b60405180910390a15050505050505050505050565b610cfd604051806101000160405280600081526020016060815260200160608152602001600015158152602001600081526020016000815260200160006001600160a01b03168152602001600081525090565b60008281526001602052604081206007015460609190819067ffffffffffffffff811115610d2d57610d2d6115fe565b604051908082528060200260200182016040528015610d8957816020015b610d766040518060800160405280600081526020016000815260200160008152602001606081525090565b815260200190600190039081610d4b5790505b506000868152600560205260408120549192505b600087815260016020526040902060070154811015610ebc576000878152600360208181526040808420858552825292839020835160808101855281548152600182015492810192909252600281015493820193909352908201805483916060840191610e0990611614565b80601f0160208091040260200160405190810160405280929190818152602001828054610e3590611614565b8015610e825780601f10610e5757610100808354040283529160200191610e82565b820191906000526020600020905b815481529060010190602001808311610e6557829003601f168201915b505050505081525050848381518110610e9d57610e9d611648565b6020026020010181905250508080610eb49061165e565b915050610d9d565b50600160008781526020019081526020016000208282826040518061010001604052908160008201548152602001600182018054610ef990611614565b80601f0160208091040260200160405190810160405280929190818152602001828054610f2590611614565b8015610f725780601f10610f4757610100808354040283529160200191610f72565b820191906000526020600020905b815481529060010190602001808311610f5557829003601f168201915b50505050508152602001600282018054610f8b90611614565b80601f0160208091040260200160405190810160405280929190818152602001828054610fb790611614565b80156110045780601f10610fd957610100808354040283529160200191611004565b820191906000526020600020905b815481529060010190602001808311610fe757829003601f168201915b5050509183525050600382015460ff1615156020820152600482015460408201526005820154606082015260068201546001600160a01b0316608082015260079091015460a090910152999198509650945050505050565b8280548282559060005260206000209060040281019282156110cd5760005260206000209160040282015b828111156110cd5782548255600180840154908301556002808401549083015582826003808201906110bb908401826116d4565b50505091600401919060040190611087565b506110d99291506110dd565b5090565b808211156110d95760008082556001820181905560028201819055611105600383018261110e565b506004016110dd565b50805461111a90611614565b6000825580601f1061112a575050565b601f016020900490600052602060002090810190611148919061114b565b50565b5b808211156110d9576000815560010161114c565b6000815180845260005b818110156111865760208185018101518683018201520161116a565b506000602082860101526020601f19601f83011685010191505092915050565b60006101008251845260208301518160208601526111c682860182611160565b915050604083015184820360408601526111e08282611160565b9150506060830151151560608501526080830151608085015260a083015160a08501526001600160a01b0360c08401511660c085015260e083015160e08501528091505092915050565b6000602080830181845280855180835260408601915060408160051b870101925083870160005b8281101561127f57603f1988860301845261126d8583516111a6565b94509285019290850190600101611251565b5092979650505050505050565b60006020828403121561129e57600080fd5b5035919050565b60006080808401835185526020808501518187015260406001600160a01b0381870151168188015260608087015185828a015284815180875260a08b01915060a08160051b8c01019650858301925060005b81811015611346578b8803609f1901835283518051895287810151888a015286810151878a01528501518589018a90526113338a8a0182611160565b98505092860192918601916001016112f7565b50959a9950505050505050505050565b60208152600061136960208301846112a5565b9392505050565b60008083601f84011261138257600080fd5b50813567ffffffffffffffff81111561139a57600080fd5b6020830191508360208260051b85010111156113b557600080fd5b9250929050565b6000806000604084860312156113d157600080fd5b83359250602084013567ffffffffffffffff8111156113ef57600080fd5b6113fb86828701611370565b9497909650939450505050565b6000602080830181845280855180835260408601915060408160051b870101925083870160005b8281101561127f57603f1988860301845261144b8583516112a5565b9450928501929085019060010161142f565b60008083601f84011261146f57600080fd5b50813567ffffffffffffffff81111561148757600080fd5b6020830191508360208285010111156113b557600080fd5b60008060008060008060008060a0898b0312156114bb57600080fd5b883567ffffffffffffffff808211156114d357600080fd5b6114df8c838d0161145d565b909a50985060208b01359150808211156114f857600080fd5b6115048c838d0161145d565b909850965060408b01359150811515821461151e57600080fd5b90945060608a0135935060808a0135908082111561153b57600080fd5b506115488b828c01611370565b999c989b5096995094979396929594505050565b6000606080835261156f818401876111a6565b6020848203818601528187518084528284019150828160051b850101838a0160005b838110156115e557868303601f1901855281518051845286810151878501526040808201519085015288015160808985018190526115d181860183611160565b968801969450505090850190600101611591565b5050809650505050505050826040830152949350505050565b634e487b7160e01b600052604160045260246000fd5b600181811c9082168061162857607f821691505b6020821081036103e757634e487b7160e01b600052602260045260246000fd5b634e487b7160e01b600052603260045260246000fd5b60006001820161167e57634e487b7160e01b600052601160045260246000fd5b5060010190565b601f8211156116cf57600081815260208120601f850160051c810160208610156116ac5750805b601f850160051c820191505b818110156116cb578281556001016116b8565b5050505b505050565b8181036116df575050565b6116e98254611614565b67ffffffffffffffff811115611701576117016115fe565b6117158161170f8454611614565b84611685565b6000601f82116001811461174957600083156117315750848201545b600019600385901b1c1916600184901b1784556117ae565b600085815260209020601f19841690600086815260209020845b838110156117835782860154825560019586019590910190602001611763565b50858310156117a15781850154600019600388901b60f8161c191681555b50505060018360011b0184555b5050505050565b600081546117c281611614565b8085526020600183811680156117df57600181146117f957611827565b60ff1985168884015283151560051b880183019550611827565b866000528260002060005b8581101561181f5781548a8201860152908301908401611804565b890184019650505b505050505092915050565b6000602080835260a0830184548285015260018086015460408181880152600291506001600160a01b038289015416606081818a015260039150818a01608080818c0152878254808a5260c08d01915060c08160051b8e01019950836000528a600020935060005b818110156118e65760bf198e8c0301835284548b52898501548c8c015288850154888c015283868c01526118d2848c018887016117b5565b9a5060049490940193918b0191890161189a565b50989d9c50505050505050505050505050565b67ffffffffffffffff831115611911576119116115fe565b6119258361191f8354611614565b83611685565b6000601f84116001811461195957600085156119415750838201355b600019600387901b1c1916600186901b1783556117ae565b600083815260209020601f19861690835b8281101561198a578685013582556020948501946001909201910161196a565b50868210156119a75760001960f88860031b161c19848701351681555b505060018560011b0183555050505050565b6000808335601e198436030181126119d057600080fd5b83018035915067ffffffffffffffff8211156119eb57600080fd5b6020019150368190038213156113b557600080fd5b815167ffffffffffffffff811115611a1a57611a1a6115fe565b611a288161170f8454611614565b602080601f831160018114611a5d5760008415611a455750858301515b600019600386901b1c1916600185901b1785556116cb565b600085815260208120601f198616915b82811015611a8c57888601518255948401946001909101908401611a6d565b5085821015611aaa5787850151600019600388901b60f8161c191681555b5050505050600190811b01905550565b60208152815460208201526000610100806040840152611ae16101208401600186016117b5565b838103601f19016060850152611afa81600287016117b5565b9050611b0a600386015460ff1690565b15156080850152600485015460a0850152600585015460c085015260068501546001600160a01b031660e0850152600790940154920191909152509056fea2646970667358221220a494949a2db9eee85b7228e1a90d642d4bacdc243a1ea28d2a960cfa4ef0297764736f6c63430008130033",
  "devdoc": {
    "kind": "dev",
    "methods": {},
    "version": 1
  },
  "userdoc": {
    "kind": "user",
    "methods": {},
    "version": 1
  },
  "storageLayout": {
    "storage": [
      {
        "astId": 66,
        "contract": "contracts/PollContract.sol:PollContract",
        "label": "pollsCount",
        "offset": 0,
        "slot": "0",
        "type": "t_uint256"
      },
      {
        "astId": 71,
        "contract": "contracts/PollContract.sol:PollContract",
        "label": "polls",
        "offset": 0,
        "slot": "1",
        "type": "t_mapping(t_uint256,t_struct(Poll)54_storage)"
      },
      {
        "astId": 78,
        "contract": "contracts/PollContract.sol:PollContract",
        "label": "globalVotesByAddress",
        "offset": 0,
        "slot": "2",
        "type": "t_mapping(t_address,t_mapping(t_uint256,t_struct(Vote)37_storage))"
      },
      {
        "astId": 85,
        "contract": "contracts/PollContract.sol:PollContract",
        "label": "pollOptions",
        "offset": 0,
        "slot": "3",
        "type": "t_mapping(t_uint256,t_mapping(t_uint256,t_struct(Option)26_storage))"
      },
      {
        "astId": 92,
        "contract": "contracts/PollContract.sol:PollContract",
        "label": "pollVotes",
        "offset": 0,
        "slot": "4",
        "type": "t_mapping(t_uint256,t_mapping(t_uint256,t_struct(Vote)37_storage))"
      },
      {
        "astId": 96,
        "contract": "contracts/PollContract.sol:PollContract",
        "label": "amountOfVotesInPoll",
        "offset": 0,
        "slot": "5",
        "type": "t_mapping(t_uint256,t_uint256)"
      }
    ],
    "types": {
      "t_address": {
        "encoding": "inplace",
        "label": "address",
        "numberOfBytes": "20"
      },
      "t_array(t_struct(Option)26_storage)dyn_storage": {
        "base": "t_struct(Option)26_storage",
        "encoding": "dynamic_array",
        "label": "struct PollContract.Option[]",
        "numberOfBytes": "32"
      },
      "t_bool": {
        "encoding": "inplace",
        "label": "bool",
        "numberOfBytes": "1"
      },
      "t_mapping(t_address,t_mapping(t_uint256,t_struct(Vote)37_storage))": {
        "encoding": "mapping",
        "key": "t_address",
        "label": "mapping(address => mapping(uint256 => struct PollContract.Vote))",
        "numberOfBytes": "32",
        "value": "t_mapping(t_uint256,t_struct(Vote)37_storage)"
      },
      "t_mapping(t_uint256,t_mapping(t_uint256,t_struct(Option)26_storage))": {
        "encoding": "mapping",
        "key": "t_uint256",
        "label": "mapping(uint256 => mapping(uint256 => struct PollContract.Option))",
        "numberOfBytes": "32",
        "value": "t_mapping(t_uint256,t_struct(Option)26_storage)"
      },
      "t_mapping(t_uint256,t_mapping(t_uint256,t_struct(Vote)37_storage))": {
        "encoding": "mapping",
        "key": "t_uint256",
        "label": "mapping(uint256 => mapping(uint256 => struct PollContract.Vote))",
        "numberOfBytes": "32",
        "value": "t_mapping(t_uint256,t_struct(Vote)37_storage)"
      },
      "t_mapping(t_uint256,t_struct(Option)26_storage)": {
        "encoding": "mapping",
        "key": "t_uint256",
        "label": "mapping(uint256 => struct PollContract.Option)",
        "numberOfBytes": "32",
        "value": "t_struct(Option)26_storage"
      },
      "t_mapping(t_uint256,t_struct(Poll)54_storage)": {
        "encoding": "mapping",
        "key": "t_uint256",
        "label": "mapping(uint256 => struct PollContract.Poll)",
        "numberOfBytes": "32",
        "value": "t_struct(Poll)54_storage"
      },
      "t_mapping(t_uint256,t_struct(Vote)37_storage)": {
        "encoding": "mapping",
        "key": "t_uint256",
        "label": "mapping(uint256 => struct PollContract.Vote)",
        "numberOfBytes": "32",
        "value": "t_struct(Vote)37_storage"
      },
      "t_mapping(t_uint256,t_uint256)": {
        "encoding": "mapping",
        "key": "t_uint256",
        "label": "mapping(uint256 => uint256)",
        "numberOfBytes": "32",
        "value": "t_uint256"
      },
      "t_string_storage": {
        "encoding": "bytes",
        "label": "string",
        "numberOfBytes": "32"
      },
      "t_struct(Option)26_storage": {
        "encoding": "inplace",
        "label": "struct PollContract.Option",
        "members": [
          {
            "astId": 19,
            "contract": "contracts/PollContract.sol:PollContract",
            "label": "optionId",
            "offset": 0,
            "slot": "0",
            "type": "t_uint256"
          },
          {
            "astId": 21,
            "contract": "contracts/PollContract.sol:PollContract",
            "label": "pollId",
            "offset": 0,
            "slot": "1",
            "type": "t_uint256"
          },
          {
            "astId": 23,
            "contract": "contracts/PollContract.sol:PollContract",
            "label": "numberOfVotes",
            "offset": 0,
            "slot": "2",
            "type": "t_uint256"
          },
          {
            "astId": 25,
            "contract": "contracts/PollContract.sol:PollContract",
            "label": "name",
            "offset": 0,
            "slot": "3",
            "type": "t_string_storage"
          }
        ],
        "numberOfBytes": "128"
      },
      "t_struct(Poll)54_storage": {
        "encoding": "inplace",
        "label": "struct PollContract.Poll",
        "members": [
          {
            "astId": 39,
            "contract": "contracts/PollContract.sol:PollContract",
            "label": "id",
            "offset": 0,
            "slot": "0",
            "type": "t_uint256"
          },
          {
            "astId": 41,
            "contract": "contracts/PollContract.sol:PollContract",
            "label": "name",
            "offset": 0,
            "slot": "1",
            "type": "t_string_storage"
          },
          {
            "astId": 43,
            "contract": "contracts/PollContract.sol:PollContract",
            "label": "description",
            "offset": 0,
            "slot": "2",
            "type": "t_string_storage"
          },
          {
            "astId": 45,
            "contract": "contracts/PollContract.sol:PollContract",
            "label": "allowMultipleOptionsSelected",
            "offset": 0,
            "slot": "3",
            "type": "t_bool"
          },
          {
            "astId": 47,
            "contract": "contracts/PollContract.sol:PollContract",
            "label": "createdAt",
            "offset": 0,
            "slot": "4",
            "type": "t_uint256"
          },
          {
            "astId": 49,
            "contract": "contracts/PollContract.sol:PollContract",
            "label": "closesAt",
            "offset": 0,
            "slot": "5",
            "type": "t_uint256"
          },
          {
            "astId": 51,
            "contract": "contracts/PollContract.sol:PollContract",
            "label": "creator",
            "offset": 0,
            "slot": "6",
            "type": "t_address"
          },
          {
            "astId": 53,
            "contract": "contracts/PollContract.sol:PollContract",
            "label": "numberOfOptions",
            "offset": 0,
            "slot": "7",
            "type": "t_uint256"
          }
        ],
        "numberOfBytes": "256"
      },
      "t_struct(Vote)37_storage": {
        "encoding": "inplace",
        "label": "struct PollContract.Vote",
        "members": [
          {
            "astId": 28,
            "contract": "contracts/PollContract.sol:PollContract",
            "label": "voteId",
            "offset": 0,
            "slot": "0",
            "type": "t_uint256"
          },
          {
            "astId": 30,
            "contract": "contracts/PollContract.sol:PollContract",
            "label": "pollId",
            "offset": 0,
            "slot": "1",
            "type": "t_uint256"
          },
          {
            "astId": 32,
            "contract": "contracts/PollContract.sol:PollContract",
            "label": "voter",
            "offset": 0,
            "slot": "2",
            "type": "t_address"
          },
          {
            "astId": 36,
            "contract": "contracts/PollContract.sol:PollContract",
            "label": "optionsVoted",
            "offset": 0,
            "slot": "3",
            "type": "t_array(t_struct(Option)26_storage)dyn_storage"
          }
        ],
        "numberOfBytes": "128"
      },
      "t_uint256": {
        "encoding": "inplace",
        "label": "uint256",
        "numberOfBytes": "32"
      }
    }
  }
}